{
  "contractName": "registryDID",
  "abi": [
    {
      "inputs": [
        {
          "internalType": "string",
          "name": "_nameVC",
          "type": "string"
        },
        {
          "internalType": "string",
          "name": "_genderVC",
          "type": "string"
        },
        {
          "internalType": "string",
          "name": "_ageVC",
          "type": "string"
        }
      ],
      "name": "registerVC",
      "outputs": [],
      "stateMutability": "nonpayable",
      "type": "function"
    },
    {
      "inputs": [
        {
          "internalType": "address",
          "name": "_add",
          "type": "address"
        },
        {
          "internalType": "uint256",
          "name": "_num",
          "type": "uint256"
        }
      ],
      "name": "getVC",
      "outputs": [
        {
          "components": [
            {
              "internalType": "string",
              "name": "nameVC",
              "type": "string"
            },
            {
              "internalType": "string",
              "name": "genderVC",
              "type": "string"
            },
            {
              "internalType": "string",
              "name": "ageVC",
              "type": "string"
            }
          ],
          "internalType": "struct registryDID.repositoryVC",
          "name": "",
          "type": "tuple"
        }
      ],
      "stateMutability": "view",
      "type": "function"
    }
  ],
  "bytecode": "0x608060405234801561001057600080fd5b506109d2806100206000396000f3fe608060405234801561001057600080fd5b50600436106100365760003560e01c80634a6888ce1461003b578063bc9dae8514610057575b600080fd5b61005560048036038101906100509190610611565b610087565b005b610071600480360381019061006c919061074c565b6101c1565b60405161007e9190610872565b60405180910390f35b6000803373ffffffffffffffffffffffffffffffffffffffff1673ffffffffffffffffffffffffffffffffffffffff16815260200190815260200160002060000160008154809291906100d9906108c3565b91905055506000803373ffffffffffffffffffffffffffffffffffffffff1673ffffffffffffffffffffffffffffffffffffffff1681526020019081526020016000206001016040518060600160405280858152602001848152602001838152509080600181540180825580915050600190039060005260206000209060030201600090919091909150600082015181600001908051906020019061017f9291906103f3565b50602082015181600101908051906020019061019c9291906103f3565b5060408201518160020190805190602001906101b99291906103f3565b505050505050565b6101c9610479565b6000808473ffffffffffffffffffffffffffffffffffffffff1673ffffffffffffffffffffffffffffffffffffffff168152602001908152602001600020600101828154811061021c5761021b61090c565b5b90600052602060002090600302016040518060600160405290816000820180546102459061096a565b80601f01602080910402602001604051908101604052809291908181526020018280546102719061096a565b80156102be5780601f10610293576101008083540402835291602001916102be565b820191906000526020600020905b8154815290600101906020018083116102a157829003601f168201915b505050505081526020016001820180546102d79061096a565b80601f01602080910402602001604051908101604052809291908181526020018280546103039061096a565b80156103505780601f1061032557610100808354040283529160200191610350565b820191906000526020600020905b81548152906001019060200180831161033357829003601f168201915b505050505081526020016002820180546103699061096a565b80601f01602080910402602001604051908101604052809291908181526020018280546103959061096a565b80156103e25780601f106103b7576101008083540402835291602001916103e2565b820191906000526020600020905b8154815290600101906020018083116103c557829003601f168201915b505050505081525050905092915050565b8280546103ff9061096a565b90600052602060002090601f0160209004810192826104215760008555610468565b82601f1061043a57805160ff1916838001178555610468565b82800160010185558215610468579182015b8281111561046757825182559160200191906001019061044c565b5b509050610475919061049a565b5090565b60405180606001604052806060815260200160608152602001606081525090565b5b808211156104b357600081600090555060010161049b565b5090565b6000604051905090565b600080fd5b600080fd5b600080fd5b600080fd5b6000601f19601f8301169050919050565b7f4e487b7100000000000000000000000000000000000000000000000000000000600052604160045260246000fd5b61051e826104d5565b810181811067ffffffffffffffff8211171561053d5761053c6104e6565b5b80604052505050565b60006105506104b7565b905061055c8282610515565b919050565b600067ffffffffffffffff82111561057c5761057b6104e6565b5b610585826104d5565b9050602081019050919050565b82818337600083830152505050565b60006105b46105af84610561565b610546565b9050828152602081018484840111156105d0576105cf6104d0565b5b6105db848285610592565b509392505050565b600082601f8301126105f8576105f76104cb565b5b81356106088482602086016105a1565b91505092915050565b60008060006060848603121561062a576106296104c1565b5b600084013567ffffffffffffffff811115610648576106476104c6565b5b610654868287016105e3565b935050602084013567ffffffffffffffff811115610675576106746104c6565b5b610681868287016105e3565b925050604084013567ffffffffffffffff8111156106a2576106a16104c6565b5b6106ae868287016105e3565b9150509250925092565b600073ffffffffffffffffffffffffffffffffffffffff82169050919050565b60006106e3826106b8565b9050919050565b6106f3816106d8565b81146106fe57600080fd5b50565b600081359050610710816106ea565b92915050565b6000819050919050565b61072981610716565b811461073457600080fd5b50565b60008135905061074681610720565b92915050565b60008060408385031215610763576107626104c1565b5b600061077185828601610701565b925050602061078285828601610737565b9150509250929050565b600081519050919050565b600082825260208201905092915050565b60005b838110156107c65780820151818401526020810190506107ab565b838111156107d5576000848401525b50505050565b60006107e68261078c565b6107f08185610797565b93506108008185602086016107a8565b610809816104d5565b840191505092915050565b6000606083016000830151848203600086015261083182826107db565b9150506020830151848203602086015261084b82826107db565b9150506040830151848203604086015261086582826107db565b9150508091505092915050565b6000602082019050818103600083015261088c8184610814565b905092915050565b7f4e487b7100000000000000000000000000000000000000000000000000000000600052601160045260246000fd5b60006108ce82610716565b91507fffffffffffffffffffffffffffffffffffffffffffffffffffffffffffffffff82141561090157610900610894565b5b600182019050919050565b7f4e487b7100000000000000000000000000000000000000000000000000000000600052603260045260246000fd5b7f4e487b7100000000000000000000000000000000000000000000000000000000600052602260045260246000fd5b6000600282049050600182168061098257607f821691505b602082108114156109965761099561093b565b5b5091905056fea2646970667358221220c5c1677dcb9d15d4fbe0e78f8d1cb038df7a273372b2e7ec19f0de65c7ae066f64736f6c63430008090033",
  "immutableReferences": {},
  "source": "pragma solidity >=0.4.22 <0.9.0;\r\n\r\n\r\ncontract registryDID {\r\n\r\n  struct repositoryVC {\r\n      string nameVC;\r\n      string genderVC;\r\n      string ageVC;\r\n  }\r\n\r\n  struct  didInfo {\r\n      uint countRepoVC;\r\n      repositoryVC[] repoVC;\r\n  }\r\n\r\n\r\n\r\n  mapping (address => didInfo) ownerVC;\r\n\r\n  function registerVC (string memory _nameVC, string memory _genderVC, string memory _ageVC) public {\r\n\r\n    ownerVC[msg.sender].countRepoVC++;\r\n    \r\n    ownerVC[msg.sender].repoVC.push(repositoryVC(_nameVC, _genderVC, _ageVC));\r\n  \r\n  }\r\n\r\n\r\nfunction getVC (address _add, uint _num) public view returns(repositoryVC memory) {\r\n   return ownerVC[_add].repoVC[_num];\r\n}\r\n  \r\n}",
  "sourcePath": "C:\\Users\\SHU\\Desktop\\Coding\\07_Coworks\\Smart-Survey\\DID-blockchain\\contracts\\registryDID.sol",
  "compiler": {
    "name": "solc",
    "version": "0.8.9+commit.e5eed63a.Emscripten.clang"
  },
  "schemaVersion": "3.4.3",
  "updatedAt": "2021-11-21T08:47:00.476Z",
  "devdoc": {
    "kind": "dev",
    "methods": {},
    "version": 1
  },
  "userdoc": {
    "kind": "user",
    "methods": {},
    "version": 1
  }
}