{
  "contractName": "Survey",
  "abi": [
    {
      "inputs": [],
      "stateMutability": "nonpayable",
      "type": "constructor"
    },
    {
      "inputs": [
        {
          "internalType": "uint256",
          "name": "surveyIndex",
          "type": "uint256"
        },
        {
          "internalType": "uint256",
          "name": "_times",
          "type": "uint256"
        }
      ],
      "name": "fakeSurveyParticipation",
      "outputs": [],
      "stateMutability": "nonpayable",
      "type": "function"
    },
    {
      "inputs": [
        {
          "internalType": "address",
          "name": "_owner",
          "type": "address"
        },
        {
          "internalType": "uint256",
          "name": "_userLimit",
          "type": "uint256"
        }
      ],
      "name": "createSurvey",
      "outputs": [],
      "stateMutability": "payable",
      "type": "function"
    },
    {
      "inputs": [],
      "name": "getContractBalance",
      "outputs": [
        {
          "internalType": "uint256",
          "name": "",
          "type": "uint256"
        }
      ],
      "stateMutability": "view",
      "type": "function"
    },
    {
      "inputs": [
        {
          "internalType": "uint256",
          "name": "surveyIndex",
          "type": "uint256"
        },
        {
          "internalType": "address payable",
          "name": "_to",
          "type": "address"
        }
      ],
      "name": "addUser",
      "outputs": [
        {
          "internalType": "address",
          "name": "",
          "type": "address"
        }
      ],
      "stateMutability": "nonpayable",
      "type": "function"
    },
    {
      "inputs": [],
      "name": "getNumOfSurvey",
      "outputs": [
        {
          "internalType": "uint256",
          "name": "",
          "type": "uint256"
        }
      ],
      "stateMutability": "view",
      "type": "function"
    },
    {
      "inputs": [
        {
          "internalType": "uint256",
          "name": "surveyIndex",
          "type": "uint256"
        }
      ],
      "name": "getSurveyOwner",
      "outputs": [
        {
          "internalType": "address",
          "name": "",
          "type": "address"
        }
      ],
      "stateMutability": "view",
      "type": "function"
    },
    {
      "inputs": [
        {
          "internalType": "uint256",
          "name": "surveyIndex",
          "type": "uint256"
        }
      ],
      "name": "getCurrentUserNumber",
      "outputs": [
        {
          "internalType": "uint256",
          "name": "",
          "type": "uint256"
        }
      ],
      "stateMutability": "view",
      "type": "function"
    },
    {
      "inputs": [
        {
          "internalType": "uint256",
          "name": "surveyIndex",
          "type": "uint256"
        }
      ],
      "name": "getUserLimit",
      "outputs": [
        {
          "internalType": "uint256",
          "name": "",
          "type": "uint256"
        }
      ],
      "stateMutability": "view",
      "type": "function"
    },
    {
      "inputs": [
        {
          "internalType": "uint256",
          "name": "surveyIndex",
          "type": "uint256"
        }
      ],
      "name": "estimateReward",
      "outputs": [
        {
          "internalType": "uint256",
          "name": "",
          "type": "uint256"
        }
      ],
      "stateMutability": "view",
      "type": "function"
    },
    {
      "inputs": [
        {
          "internalType": "uint256",
          "name": "surveyIndex",
          "type": "uint256"
        },
        {
          "internalType": "address payable",
          "name": "_to",
          "type": "address"
        }
      ],
      "name": "close",
      "outputs": [],
      "stateMutability": "nonpayable",
      "type": "function"
    }
  ],
  "bytecode": "0x6080604052600060015534801561001557600080fd5b50336000806101000a81548173ffffffffffffffffffffffffffffffffffffffff021916908373ffffffffffffffffffffffffffffffffffffffff160217905550610ac4806100656000396000f3fe6080604052600436106100915760003560e01c8063875b507611610059578063875b50761461018f578063904efb5b146101cc578063ca6c799314610209578063d2e8756114610225578063d3d202fd1461026257610091565b8063092763cd1461009657806328b0b3a2146100c15780632a7dd20d146100fe57806358d9fa04146101275780636f9fb98a14610164575b600080fd5b3480156100a257600080fd5b506100ab61028b565b6040516100b891906107aa565b60405180910390f35b3480156100cd57600080fd5b506100e860048036038101906100e391906107f6565b610295565b6040516100f591906107aa565b60405180910390f35b34801561010a57600080fd5b5061012560048036038101906101209190610823565b6102b5565b005b34801561013357600080fd5b5061014e600480360381019061014991906108c1565b61033e565b60405161015b9190610922565b60405180910390f35b34801561017057600080fd5b506101796104a9565b60405161018691906107aa565b60405180910390f35b34801561019b57600080fd5b506101b660048036038101906101b191906107f6565b6104b1565b6040516101c39190610922565b60405180910390f35b3480156101d857600080fd5b506101f360048036038101906101ee91906107f6565b6104f1565b60405161020091906107aa565b60405180910390f35b610223600480360381019061021e9190610969565b610511565b005b34801561023157600080fd5b5061024c600480360381019061024791906107f6565b6105dc565b60405161025991906107aa565b60405180910390f35b34801561026e57600080fd5b50610289600480360381019061028491906108c1565b61061d565b005b6000600154905090565b600060026000838152602001908152602001600020600301549050919050565b60008054906101000a900473ffffffffffffffffffffffffffffffffffffffff1673ffffffffffffffffffffffffffffffffffffffff163373ffffffffffffffffffffffffffffffffffffffff161461030d57600080fd5b8060026000848152602001908152602001600020600301600082825461033391906109d8565b925050819055505050565b600060016002600085815260200190815260200160002060050160008473ffffffffffffffffffffffffffffffffffffffff1673ffffffffffffffffffffffffffffffffffffffff16815260200190815260200160002054141580156103cf575060026000848152602001908152602001600020600201546002600085815260200190815260200160002060030154105b801561040657508173ffffffffffffffffffffffffffffffffffffffff163373ffffffffffffffffffffffffffffffffffffffff16145b61040f57600080fd5b600160026000858152602001908152602001600020600301600082825461043691906109d8565b9250508190555060016002600085815260200190815260200160002060050160008473ffffffffffffffffffffffffffffffffffffffff1673ffffffffffffffffffffffffffffffffffffffff168152602001908152602001600020819055506104a083836106ee565b81905092915050565b600047905090565b60006002600083815260200190815260200160002060000160009054906101000a900473ffffffffffffffffffffffffffffffffffffffff169050919050565b600060026000838152602001908152602001600020600201549050919050565b8160026000600154815260200190815260200160002060000160006101000a81548173ffffffffffffffffffffffffffffffffffffffff021916908373ffffffffffffffffffffffffffffffffffffffff16021790555034600260006001548152602001908152602001600020600101819055503460026000600154815260200190815260200160002060040181905550806002600060015481526020019081526020016000206002018190555060018060008282546105d191906109d8565b925050819055505050565b6000600260008381526020019081526020016000206002015460026000848152602001908152602001600020600101546106169190610a5d565b9050919050565b6002600083815260200190815260200160002060000160009054906101000a900473ffffffffffffffffffffffffffffffffffffffff1673ffffffffffffffffffffffffffffffffffffffff163373ffffffffffffffffffffffffffffffffffffffff161461068b57600080fd5b8073ffffffffffffffffffffffffffffffffffffffff166108fc600260006001548152602001908152602001600020600401549081150290604051600060405180830381858888f193505050501580156106e9573d6000803e3d6000fd5b505050565b6000600260008481526020019081526020016000206002015460026000858152602001908152602001600020600101546107289190610a5d565b90508173ffffffffffffffffffffffffffffffffffffffff166108fc829081150290604051600060405180830381858888f19350505050158015610770573d6000803e3d6000fd5b50806002600085815260200190815260200160002060040181905550505050565b6000819050919050565b6107a481610791565b82525050565b60006020820190506107bf600083018461079b565b92915050565b600080fd5b6107d381610791565b81146107de57600080fd5b50565b6000813590506107f0816107ca565b92915050565b60006020828403121561080c5761080b6107c5565b5b600061081a848285016107e1565b91505092915050565b6000806040838503121561083a576108396107c5565b5b6000610848858286016107e1565b9250506020610859858286016107e1565b9150509250929050565b600073ffffffffffffffffffffffffffffffffffffffff82169050919050565b600061088e82610863565b9050919050565b61089e81610883565b81146108a957600080fd5b50565b6000813590506108bb81610895565b92915050565b600080604083850312156108d8576108d76107c5565b5b60006108e6858286016107e1565b92505060206108f7858286016108ac565b9150509250929050565b600061090c82610863565b9050919050565b61091c81610901565b82525050565b60006020820190506109376000830184610913565b92915050565b61094681610901565b811461095157600080fd5b50565b6000813590506109638161093d565b92915050565b600080604083850312156109805761097f6107c5565b5b600061098e85828601610954565b925050602061099f858286016107e1565b9150509250929050565b7f4e487b7100000000000000000000000000000000000000000000000000000000600052601160045260246000fd5b60006109e382610791565b91506109ee83610791565b9250827fffffffffffffffffffffffffffffffffffffffffffffffffffffffffffffffff03821115610a2357610a226109a9565b5b828201905092915050565b7f4e487b7100000000000000000000000000000000000000000000000000000000600052601260045260246000fd5b6000610a6882610791565b9150610a7383610791565b925082610a8357610a82610a2e565b5b82820490509291505056fea26469706673582212204af0a4e906942ff4cfdf9ae67490433a679fbb366014dbb02406d61b9a441e3c64736f6c63430008090033",
  "immutableReferences": {},
  "source": "pragma solidity >=0.4.22 <0.9.0;\r\n\r\ncontract Survey{\r\n    \r\n    address contractOwner;\r\n\r\n    struct SurveyItem{\r\n        address owner;\r\n        uint totalAmount; //   \r\n        uint userLimit; //     \r\n        uint currentUser; //     \r\n        uint currentAmount; //  (=    -  )\r\n\r\n        mapping(address => uint) userState;\r\n        mapping(uint => string) necessaryVP;\r\n    }\r\n    \r\n    uint surveyCount = 0; //    \r\n    mapping(uint => SurveyItem) surveyInfo; //   \r\n    \r\n    constructor(){\r\n        contractOwner = msg.sender;\r\n    }\r\n\r\n    // OK           \r\n    function fakeSurveyParticipation(uint surveyIndex, uint _times) public{\r\n        require(msg.sender == contractOwner);\r\n\r\n        surveyInfo[surveyIndex].currentUser += _times; //    \r\n        \r\n        // uint reward = (surveyInfo[surveyIndex].totalAmount / surveyInfo[surveyIndex].userLimit) * _times;\r\n        // payable(address(msg.sender)).transfer(reward);\r\n        \r\n        // surveyInfo[surveyIndex].currentAmount = reward;\r\n    }\r\n\r\n    // OK   ,        \r\n    function createSurvey(address _owner, uint _userLimit) public payable{\r\n        surveyInfo[surveyCount].owner = _owner;\r\n        surveyInfo[surveyCount].totalAmount = msg.value;\r\n        surveyInfo[surveyCount].currentAmount = msg.value;\r\n        surveyInfo[surveyCount].userLimit = _userLimit;\r\n        surveyCount += 1;\r\n    }\r\n    \r\n    // OK      \r\n    function getContractBalance() public view returns(uint){\r\n        return address(this).balance;\r\n    }\r\n    \r\n    // OK    \r\n    function addUser(uint surveyIndex, address payable _to) public returns (address){\r\n        //require(userState[_to] != 1 && currentUser < userLimit && msg.sender == _to);\r\n        require(surveyInfo[surveyIndex].userState[_to] != 1 && \r\n                surveyInfo[surveyIndex].currentUser < surveyInfo[surveyIndex].userLimit &&\r\n                msg.sender == _to\r\n        );\r\n        \r\n        surveyInfo[surveyIndex].currentUser += 1;\r\n        surveyInfo[surveyIndex].userState[_to] = 1;\r\n        \r\n        claimReward(surveyIndex, _to);\r\n        return _to;\r\n    }\r\n    \r\n    // OK    \r\n    function getNumOfSurvey() public view returns(uint){\r\n        return surveyCount;\r\n    }\r\n    \r\n    // OK    \r\n    function getSurveyOwner(uint surveyIndex) public view returns(address){\r\n        return surveyInfo[surveyIndex].owner;\r\n    }\r\n    \r\n    // OK      \r\n    function getCurrentUserNumber(uint surveyIndex) public view returns (uint256){\r\n        return surveyInfo[surveyIndex].currentUser;\r\n    }\r\n    \r\n    // OK     \r\n    function getUserLimit(uint surveyIndex) public view returns (uint256){\r\n        return surveyInfo[surveyIndex].userLimit;\r\n    }\r\n    \r\n    // OK        \r\n    function estimateReward(uint surveyIndex) public view returns (uint){\r\n        return surveyInfo[surveyIndex].totalAmount / surveyInfo[surveyIndex].userLimit;\r\n    }\r\n\r\n    // OK     , \r\n    function claimReward(uint surveyIndex, address payable _to) private {\r\n        uint reward = surveyInfo[surveyIndex].totalAmount / surveyInfo[surveyIndex].userLimit;\r\n        _to.transfer(reward);\r\n        \r\n        surveyInfo[surveyIndex].currentAmount = reward;\r\n    }\r\n    \r\n    // OK        \r\n    function close(uint surveyIndex, address payable _to) public{\r\n        require(msg.sender == surveyInfo[surveyIndex].owner);\r\n        \r\n        _to.transfer(surveyInfo[surveyCount].currentAmount);\r\n    }\r\n}\r\n",
  "sourcePath": "C:\\Users\\SHU\\Desktop\\Coding\\07_Coworks\\Smart-Survey\\DID-blockchain\\contracts\\Survey.sol",
  "compiler": {
    "name": "solc",
    "version": "0.8.9+commit.e5eed63a.Emscripten.clang"
  },
  "schemaVersion": "3.4.3",
  "updatedAt": "2021-11-21T08:47:00.457Z",
  "devdoc": {
    "kind": "dev",
    "methods": {},
    "version": 1
  },
  "userdoc": {
    "kind": "user",
    "methods": {},
    "version": 1
  }
}